:020000040800F2
:10000000D8DE0020C10200083D290008991E000822
:10001000E5280008370C0008133300080000000032
:10002000000000000000000000000000290200089D
:1000300019160008000000006D02000825300008B5
:10004000DB020008DB020008DB020008A92C000824
:10005000DB020008DB020008DB020008DB0200080C
:10006000DB020008DB020008DB020008DB020008FC
:10007000DB020008DB020008DB020008DB020008EC
:10008000DB020008DB020008DB020008DB020008DC
:10009000DB020008DB020008DB020008DB020008CC
:1000A000DB020008DB020008DB020008DB020008BC
:1000B000B9300008DB020008DB020008DB020008A0
:1000C000DB020008DB020008DB020008DB0200089C
:1000D000DB020008F930000821310008DB020008CB
:1000E000DB020008DB020008DB020008DB0200087C
:1000F000DB020008DB020008DB020008DB0200086C
:10010000DB020008DB020008DB020008DB0200085B
:10011000DB020008DB020008DB020008DB0200084B
:10012000DB020008DB020008DB020008DB0200083B
:1001300000F002F800F068F80AA090E8000C824491
:100140008344AAF10107DA4501D100F05DF8AFF26E
:10015000090EBAE80F0013F0010F18BFFB1A43F0A5
:10016000010318475C4404007C4404000A444FF037
:10017000000C10F8013B13F0070408BF10F8014B06
:100180001D1108BF10F8015B641E05D010F8016B4B
:10019000641E01F8016BF9D113F0080F1EBF10F8AF
:1001A000014BAD1C0C1B09D16D1E58BF01F801CBD2
:1001B000FAD505E014F8016B01F8016B6D1EF9D555
:1001C0009142D6D37047000000230024002500266A
:1001D000103A28BF78C1FBD8520728BF30C148BFAA
:1001E0000B607047732900F0AA83002070471FB589
:1001F00000F006FD04000020002134F0CBF9401C83
:1002000060601FBD10B510BD00F0D4FC1146FFF7B3
:10021000EEFF2CF0E0F900F005FD03B4FFF7F2FF6C
:1002200003BC00F047FC0000224B19680868B0E8E6
:10023000F00F80F30988BFF36F8F4FF0000080F359
:1002400011884EF00D0E704700000000064800684F
:10025000006880F3088862B661B6BFF34F8FBFF3C2
:100260006F8F00DF00BF00BF08ED00E0EFF30980F3
:10027000BFF36F8F0F4B1A6820E9F00F106008B5BD
:100280004FF0BF0080F31188BFF34F8FBFF36F8F24
:1002900033F018FE4FF0000080F31188BDE80840ED
:1002A00019680868B0E8F00F80F30988BFF36F8F12
:1002B000704700BF04030020EFF305807047000083
:1002C0000948804709480047FEE7FEE7FEE7FEE7EA
:1002D000FEE7FEE7FEE7FEE7FEE7FEE70448054926
:1002E000054A064B704700005930000831010008EC
:1002F000D8D80020D8DE0020D8DA0020D8DA0020B4
:1003000053EA020C00F069802DE9F04B4FF0000633
:10031000002B1FBFB3FA83F503FA05F424FA05F6A0
:100320005E4012BF1643B2FA82F502FA05F4C5F137
:1003300020051EBF22FA05FC44EA0C04203556EACB
:10034000044C4FEA144418BF641C4FF000084FF0EF
:100350000009904271EB030C39D3002919BFB1FA9F
:1003600081F701FA07F6B0FA80F700FA07F6C7F14D
:1003700020071EBF20FA07FC46EA0C062037B6FB12
:10038000F4FCA7EB0507103F07F01F0BCBF120068D
:100390000CFA0BFB2CFA06F644BFB3460026202FBE
:1003A000A4BF5E464FF0000B5BEA060C08BF4FF09F
:1003B000010B19EB0B09ABFB027C48EB0608C01BD9
:1003C00006FB02CC0BFB03CC71EB0C01C1E70B4627
:1003D000024641464846BDE8F08B13B54FF0000099
:1003E0004FF00001AFF30080BDE81C4070470000F3
:1003F0000FB41CB5074B06AA7B44694600900598CC
:1004000000F073FA0020694600F082FA1CBC5DF827
:1004100014FB0000150500002DE9F0410E460446CE
:10042000002020622046E168884730B3252805D0A7
:10043000D4E901219047206A401CF2E7E168204698
:1004400000278847050018D0A5F14100192802D8D7
:1004500020354FF400673246294620462760FFF7D3
:10046000C1FE40B1012804D0F61D26F0070608366B
:10047000D8E7361DD6E72846DAE7206ABDE8F081DE
:1004800070B50C460546012A05D02878800600D5AF
:10049000EA69002302E0012305E05B1C934202D2DB
:1004A000E05C0028F9D1A869E618C01AA861286A9A
:1004B000184428622846AFF3008004E0D5E9012102
:1004C00014F8010B9047B442F8D32846AFF30080EC
:1004D00070BD70B5064600F0FFF904680546304669
:1004E0000A22002100F02FFA2C6070BD014A00F0B2
:1004F00063BA00004003002030B505460B462A468B
:1005000013F8014B12F8010B08B1A042F8D01CB14E
:10051000002802D06D1CF1E7284630BD40EA0103F7
:10052000024630B59B0710D14FF0013400E008C2FD
:1005300008C91D1B9D4315EAC41FF8D013F0FF0125
:1005400002F8011B0DD01B0AF8E711F8013B002B44
:1005500002F8013B05D011F8013B002B02F8013BEA
:10056000F3D130BD10B5431C02E010F8011B71B18E
:100570008107FAD14FF0013202C88C1A8C4314EA79
:10058000C211F9D0C01A0A0603D0C01E10BDC01A8D
:1005900010BD0A0401D0801E10BD0902FCD0401E0F
:1005A00010BD10B5203AC0F00B80B1E81850203AC9
:1005B000A0E81850B1E81850A0E81850BFF4F5AF03
:1005C0005FEA027C24BFB1E81850A0E8185044BF8D
:1005D00018C918C0BDE810405FEA827C24BF51F8FA
:1005E000043B40F8043B08BF7047D20728BF31F8EE
:1005F000023B48BF11F8012B28BF20F8023B48BF3F
:1006000000F8012B70474FF000020429C0F012805F
:1006100010F0030C00F01B80CCF1040CBCF1020FB5
:1006200018BF00F8012BA8BF20F8022BA1EB0C018A
:1006300000F00DB85FEAC17C24BF00F8012B00F880
:10064000012B48BF00F8012B70474FF0000200B5A6
:10065000134694469646203922BFA0E80C50A0E8E5
:100660000C50B1F12001BFF4F7AF090728BFA0E893
:100670000C5048BF0CC05DF804EB890028BF40F85F
:10068000042B08BF704748BF20F8022B11F0804FA1
:1006900018BF00F8012B70474FF0013C50F8042BB5
:1006A00051F8043B9A4221D1A2EB0C03934313EA85
:1006B000CC1317D150F8042B51F8043B9A4215D1B2
:1006C000A2EB0C03934313EACC130BD150F8042B89
:1006D00051F8043B9A4209D1A2EB0C03934313EA6D
:1006E000CC13DBD04FF00000704700BFD01A01BA26
:1006F000B1FA81F101F0180122FA01F0CB40C1F109
:100700002001DBB2C0B2C01A2CFA01F3D11A914316
:1007100011EAC311E6D17047014900F06FB900003A
:100720004CD8002010B503681C1404EB21449BB284
:1007300089B2194494FBF2F302FB134394FBF2F4E5
:1007400001EB034393FBF2F102FB113193FBF2F354
:1007500001E05B1E11440029FBDB016003EB044058
:1007600010BDF0B504464FF0FF3585B00068049029
:1007700060680290A0680390E06801902069009092
:10078000666906F18040B0F1004F7CD83C22002120
:1007900004A8FFF7C7FF3C22014602A8FFF7C2FFEB
:1007A0001822014603A8FFF7BDFF411E40F2B552D3
:1007B00001A8FFF7B7FF0C22074668460021FFF7A4
:1007C000B1FF414B00EB8700304400267B4411E031
:1007D000511A01910099491C0229009102D00C295B
:1007E00008D105E0810705D00199491C019101E07C
:1007F000401C00960099019A595C9142E8DD0099ED
:10080000012906D11C2A04D1810702D00221CDE999
:100810000016A0F146018B293CD2DDE900610022DF
:1008200002E09F5C521C3944B242FADB012E02DD29
:10083000820700D0491E40F2B55340F26D16C21730
:1008400000EB927292105A4300F0030303FB06225E
:1008500083070A4400D1521E039E02EB4203049F09
:1008600006EBC303029EC3EB031306EB8303174E91
:1008700033441E149BB2C6EB0616C3EB0313B6003B
:1008800007EB830300E005E006EB134666F31F4326
:10089000360C02D0284605B0F0BD80C4029E40C48C
:1008A000039E40C4019E761C44F80C6B009E44E9F4
:1008B00002600720521C92FBF0F600FB162084E831
:1008C00023001846E7E700008C370400A039CEFD6E
:1008D00070477047704700000048704778D8002084
:1008E00001694A1C02610878704700B58FB0CDE9F4
:1008F00001310021059105497944CDE903101146E4
:100900006846FFF789FD0FB000BD0000E5FFFFFF5F
:100910000A6802F8010B0A60704710B5436913B109
:10092000AFF3008001E0FFF7ABFD012010BD1278AE
:1009300000F124010A7000224A700122EDE71168DB
:100940004FF0FF32E9E72DE9F04791460F46804628
:100950000446002614F8015B2DB100F0B5F80068DC
:10096000405DC007F6D12B2D02D02D2D18D0641E6E
:100970004A463946204600F0AFF827B13968A1420F
:1009800001D1C7F800804FF0020471050BD5404239
:10099000002803DDFFF7A0FF0460A007BDE8F08793
:1009A00046F48066E4E70028F8DAFFF795FF046074
:1009B0006FF00040F2E700002DE9F04115460E46C9
:1009C000040002D12C6804B90BA4204600F0E3F81F
:1009D0000444207870B127463146384600F0CBF801
:1009E0000444207810B1002004F8010B38462C6034
:1009F000BDE8F0810027F9E70000000070B50C4663
:100A0000016800204A1C3ED03C22B1FBF2F302FBFD
:100A10001313B1FBF2F12360B1FBF2F302FB1313EA
:100A2000B1FBF2F118226360B1FBF2F302FB131386
:100A3000B1FBF2F146F2E0320A440721A360B2FBB7
:100A4000F1F301FB132140F2B553B2FBF3F5A161C1
:100A5000B2FBF3F103FB15228900B2F5B77F08D38F
:100A60009B10521EB2FBF3F52944B2FBF3F503FBD6
:100A700015220F4BE261616189077B440CD03B2A50
:100A80000AD3521C08E02C212046FFF7DEFD01208E
:100A9000E0600AE0521A401C195C9142FAD9521CDB
:100AA000C4E903204FF0FF302062204670BD0000F3
:100AB000DE34040001491820ABBEFEE72600020028
:100AC0000048704778D8002010B500F099F8001D54
:100AD00010BD00BFC13A03002DE9F05F8246154604
:100AE0008B4600270AF10104B9460078302801D06E
:100AF0009DB113E014F8010B0127782803D0582882
:100B000001D045B10AE00DB1102D07D1002714F82E
:100B1000010B102502E0082500E00A250026B0465A
:100B20000EE005FB080005FB06F101271FFA80F81F
:100B300001EB1046B6F5803F00D3B94614F8010B1F
:100B4000294600F061F80028EBDABBF1000F05D070
:100B50000FB1641E00E05446CBF80040B9F1000F1D
:100B600006D0FFF7B9FE02210160C81EBDE8F09F64
:100B700048EA0640FAE730B503461D781DB10A463B
:100B800003E0AC4201D1181A30BD12F8014B002C21
:100B9000F7D15B1CF1E730B503461D783DB10A463D
:100BA00012F8014B1CB1AC42FAD15B1CF5E7181AE4
:100BB00030BD70477546FFF783FFAE4605006946B6
:100BC000534620F00700854618B020B5FFF786FB96
:100BD000BDE820404FF000064FF000074FF000083E
:100BE0004FF0000B21F00701AC46ACE8C009ACE8BF
:100BF000C009ACE8C009ACE8C0098D4670470000E8
:100C00000048704798D800203A2800D2303820F0A9
:100C10002002412A01D3A2F13700884201D34FF0CC
:100C2000FF30704710B50446AFF300802046BDE8A2
:100C30001040FFF7F2BA00BFFEE7000010B5002435
:100C40004FF48071124800F01BFE4FF40071104801
:100C500000F016FE022007F087FC0AE0601CC4B218
:100C6000FA2C03DD00F0ACF9012010BD022007F0E2
:100C70007BFC4FF48071064800F0F7FD0028EDD1B1
:100C80004FF40071024800F0F9FD0020EDE700008C
:100C9000000C01401CB501210C2001F0CDFE4FF4E9
:100CA0004070ADF8000010208DF8030001208DF891
:100CB000020069462B4800F04DFD4FF44071294871
:100CC00000F0DEFD0120ADF8000010208DF80300DB
:100CD00003208DF802006946224800F03BFD012107
:100CE000204800F0CDFD2020ADF8000048208DF810
:100CF000030069461B4800F02DFD2021194800F033
:100D0000BFFD0121174800F0B9FD322007F020FC9B
:100D10000121144800F0B4FD642007F019FC4FF4E1
:100D20008071104800F0ACFD4FF400710D4800F0E8
:100D3000A7FD0A2007F00CFC00200190012201A968
:100D400000F054F915200190012201A9802000F043
:100D50004DF90C200190012201A9882000F046F9EC
:100D60001CBD0000000C014010B54FF400710E488E
:100D700000F084FD012007F0F7FB4FF480710A4872
:100D800000F07CFD012007F0EFFB4FF400710648F6
:100D900000F076FD012007F0E7FB4FF400710248F8
:100DA00000F06CFD10BD0000000C014010B54FF4C8
:100DB00000710E4800F062FD012007F0D5FB4FF4F2
:100DC00080710A4800F05CFD012007F0CDFB4FF474
:100DD0000071064800F054FD012007F0C5FB4FF4F8
:100DE0000071024800F04AFD10BD0000000C0140F7
:100DF0002DE9F04105460C46164600F0C3F82A20BE
:100E000000F01EF9FFF71AFFE8B200F019F9FFF73A
:100E100015FF00F0B7F82B2000F012F9FFF70EFFD6
:100E2000002707E000F00EF804F8010BFFF79CFF25
:100E3000781CC7B2B742F5DBFFF7B8FF00F0C0F887
:100E4000BDE8F08170B500244FF48071174800F0C0
:100E500017FD082521E04FF40071144800F00EFD45
:100E600012F0C9FC12F0C7FC12F0C5FC4FF400717F
:100E70000E4800F005FD6006040E4FF480710B482B
:100E800000F0F3FC08B1601CC4B212F0B4FC12F024
:100E9000B2FC12F0B0FC681EC5B2002DDBDC4FF4D2
:100EA0008071024800F0ECFC204670BD000C01404F
:100EB0003EB500240020029000900190012202A97A
:100EC0000220FFF795FF9DF8080000F00F000028B2
:100ED0003CD09DF8080000F00F01FF208840C0437F
:100EE0002649087000BF28E0244800780121A1406D
:100EF000084000B3224931F8140006226946FFF782
:100F000077FF9DF802101D48801C20F814109DF8F2
:100F100004100A3020F814109DF8010000F0C00001
:100F2000802808D0002115480C3020F814100A3809
:100F300020F814103EBD601CC4B2012CD4DB0F4855
:100F4000007840F081000D49087014E00B480078EB
:100F500000F0810030B10948007820F08000074996
:100F6000087008E00020054948808881084600781C
:100F700000F0E000087000BFDCE700004403002040
:100F80003C49030810B54FF480710C4800F078FC20
:100F90004FF40071094800F073FC12F02CFC4FF480
:100FA0008071064800F06AFC12F025FC4FF40071D5
:100FB000024800F063FC12F01EFC10BD000C014062
:100FC00010B54FF48071084800F058FC4FF40071E0
:100FD000054800F055FC12F00EFC4FF480710248F9
:100FE00000F04EFC10BD0000000C01402DE9F04166
:100FF00005460E4617464FF00008FFF7C3FF2A20AC
:1010000000F01EF8FFF71AFEE8B200F019F8FFF73B
:1010100015FE00240BE0305D00F012F8FFF70EFE25
:101020008046B8F1000F00D003E0601CC4B2BC429F
:10103000F1DB00BFFFF7C4FF4046BDE8F0810000D0
:1010400070B50446002528E004F0800028B14FF474
:101050008071134800F014FC04E04FF480711048D4
:1010600000F00CFC12F0C7FB4FF400710C4800F0CC
:1010700007FC12F0C0FB4FF40071094800F0FEFBC2
:10108000072D04D14FF48071054800F0F9FB60068C
:10109000040E12F0B0FB681CC5B2082DD4DB70BD85
:1010A000000C01409CE00FF0DDFC322032F0B6FD78
:1010B0004FF400714B48FFF7A6FA00204A49086038
:1010C0004AA002F03FF94DA14648FFF715FA044641
:1010D00014B94BA002F020F9424802F01DF94FF478
:1010E00000714048FFF78FFA00203F4908604AA08E
:1010F00002F028F9642032F091FD40A13948FFF751
:10110000FBF9044614B93EA002F006F9354802F096
:1011100003F94FF400713348FFF775FA00203249A4
:1011200008600FF0B5FC322032F078FD33A12D4875
:10113000FFF7E2F9044614B941A002F0EDF829489E
:1011400002F0EAF84FF400712648FFF75CFA00203D
:10115000254908600FF08EFC322032F05FFD27A198
:101160002048FFF7C9F9044614B93CA002F0D4F8AE
:101170001C4802F0D1F84FF400711A48FFF743FA07
:10118000002019490860394802F0DCF84FF49670E5
:1011900032F044FD134802F0BFF835A11148FFF7C3
:1011A000A5F9064632A10020FFF7A0F9064631A1B5
:1011B0000020FFF79BF906463046FFF78AF90546FF
:1011C0004FF400710748FFF71EFA00200649086037
:1011D000284601F091FD2848006832F00DFE00BF5E
:1011E00061E70000DC2A00207800002041542B43F6
:1011F0004950434C4F53450D0A0000004F4B00002F
:1012000074637020636F6E6E656374202065727204
:101210006F720D0A0000000041542B434950535493
:101220004152543D22544350222C2234332E313427
:10123000322E36352E323039222C38300D0A00004D
:1012400073656E64206D6F646520656E61626C65A8
:1012500020206572726F720D0A00000073656E6463
:1012600020206572726F720D0A0000003444040879
:101270003A00000022000000BC0200207AE00FF0DB
:10128000F1FB322032F0CAFC4FF400713A48FFF70C
:10129000BAF900203949086039A002F053F83CA19E
:1012A0003548FFF729F9044614B93AA002F034F89A
:1012B000314802F031F84FF400712F48FFF7A3F9DD
:1012C00000202E49086039A002F03CF8642032F07A
:1012D000A5FC2FA12848FFF70FF9044614B92DA04B
:1012E00002F01AF8244802F017F84FF4007122486F
:1012F000FFF789F90020214908600FF0C9FB32206F
:1013000032F08CFC22A11C48FFF7F6F8044614B911
:1013100030A002F001F8184801F0FEFF4FF4007110
:101320001548FFF770F90020144908600FF0A2FB80
:10133000322032F073FC16A10F48FFF7DDF80446A7
:1013400014B92BA001F0E8FF0B4801F0E5FF4FF4C2
:1013500000710948FFF757F900200849086028483C
:1013600001F0F0FF4FF4967032F058FC2548006809
:1013700032F042FD83E70000DC2A002078000020E4
:1013800041542B434950434C4F53450D0A00000034
:101390004F4B000074637020636F6E6E6563742042
:1013A000206572726F720D0A0000000041542B43D9
:1013B000495053544152543D22544350222C22311F
:1013C00031362E36322E38312E313338222C383009
:1013D0000D0A000073656E64206D6F646520656E94
:1013E00061626C6520206572726F720D0A000000E8
:1013F00073656E6420206572726F720D0A000000C2
:101400009C440408B402002000F0805111B103494B
:10141000086001E00249486070470000040402408F
:101420000000024021B1026842F00102026004E0C3
:1014300002684FF6FE731A400260704701684FF66B
:10144000FE72114001600021016041608160C16055
:101450004B49884208D14A490839496841F00F018F
:10146000474A083A51608AE045491431884208D118
:1014700043490839496841F0F001414A083A51604E
:101480007DE03F492831884208D13D490839496803
:1014900041F470613A4A083A516070E038493C3191
:1014A000884208D136490839496841F47041344AC4
:1014B000083A516063E032495031884208D13049DE
:1014C0000839496841F470212D4A083A516056E0C4
:1014D0002B496431884208D129490839496841F4C7
:1014E0007001274A083A516049E02549783188421D
:1014F00008D123490839496841F07061204A083A07
:1015000051603CE01F49884206D1011F096841F043
:101510000F01021F116032E01A491431884208D1CC
:101520001849091F096841F0F001164A121F11609D
:1015300025E014492831884208D11249091F096859
:1015400041F470610F4A121F116018E00D493C31DF
:10155000884208D10B49091F096841F47041094AC2
:10156000121F11600BE007495031884207D105492D
:10157000091F096841F47021024A121F1160704767
:10158000080002400804024010B504460021064845
:10159000FFF748FF2146044800F03CF801210248CB
:1015A000FFF740FF10BD0000300002400146002060
:1015B000002201F0805313B1054B1A6801E0054B7E
:1015C0001A6802EA01030BB1012000E00020704715
:1015D000000402400000024010B50022026847F6F5
:1015E000F0739A430C6A8B6823430C6923434C695C
:1015F00023438C692343CC6923434C6A23438C6A7D
:1016000023431A430260CB6843600B6883604B68D6
:10161000C36010BD416070477047000027E006F0CE
:10162000E1FF13480078401C114908700846007813
:10163000062819D1002008700E480088A0B10E4875
:1016400000880E490988884206D00C4800880A495B
:10165000088000200A4908800020064908800848C0
:101660000088401C06490880322032F0D7FAD6E7BD
:10167000E402002056000020AA020020A802002058
:101680005800002047E00FF0EDF9322032F0C6FAA2
:101690004FF400712048FEF7B6FF00201F49086094
:1016A0000FF004FA322032F0B9FA1DA11A48FEF701
:1016B00023FF044614B91BA001F02EFE164801F0CA
:1016C0002BFE4FF400711448FEF79DFF00201349D4
:1016D00008600FF09FF941F2883032F09FFA41F232
:1016E000883032F09BFA0EA10B48FEF705FF044646
:1016F00014B911A001F010FE074801F00DFE4FF4DF
:1017000000710548FEF77FFF00200449086010487B
:10171000006832F071FBB6E7DC2A00207800002078
:101720004F4B000073746174696F6E207365742091
:101730006572726F720D0A007769666920636F6E59
:101740006E65637420206572726F720D0A0000006E
:10175000AC0200202DE9F0410246002500260020C1
:1017600000230024002791F803C00CF00F0591F826
:1017700003C00CF0100CBCF1000F03D091F802C0B4
:101780004CEA050591F800C0BCF1000F31D0146897
:1017900000202BE04FF0010C0CFA00F3B1F800C070
:1017A0000CEA03069E4220D183004FF00F0C0CFA86
:1017B00003F7BC4305FA03FC4CEA040491F803C0A8
:1017C000BCF1280F06D14FF0010C0CFA00FCC2F856
:1017D00014C00AE091F803C0BCF1480F05D14FF0E6
:1017E000010C0CFA00FCC2F810C0401C0828D1D330
:1017F0001460B1F800C0BCF1FF0F34DD5468002064
:101800002EE000F1080C4FF0010808FA0CF3B1F8D3
:1018100000C00CEA03069E4221D183004FF00F0C5A
:101820000CFA03F7BC4305FA03FC4CEA040491F8F4
:1018300003C0BCF1280F05D100F1080C08FA0CF820
:10184000C2F8148091F803C0BCF1480F07D100F131
:10185000080C4FF0010808FA0CF8C2F81080401C80
:101860000828CED35460BDE8F0810246002093687A
:101870000B400BB1012000E0002070474161704730
:10188000016170472DE9F04105460C46284601F0FC
:101890007BFB0646204601F077FB074647EA062019
:1018A00000B2BDE8F08100003EB5642090490860B8
:1018B0003AE090488E49096850F821108C48006839
:1018C00064388C4A42F820108B488949096850F8DE
:1018D0002110874800686438874A42F820108548FC
:1018E0008349096850F8210084490968884206D272
:1018F00080487F49096850F82100804908607D4888
:101900007B49096850F821007D490968884206D959
:1019100078487749096850F8210079490860744887
:101920000068401C7249086071480068B0F5FA7F91
:10193000BFDB4FF4C8706E490860B9E06C480068BE
:10194000401E6C4951F820006E49086000BF02211A
:101950006D48FFF78AFF0128F9D06C4907202BF06A
:10196000BFF96A4800788007800B6849497840EAE7
:1019700001206649897808435E495D4A126841F84A
:1019800022006248C0788007800B6049097940EAEC
:1019900001205E49497908435749554A126841F880
:1019A000220054485249096850F8210055490968F5
:1019B000884231D94F494E4A126851F82210514A93
:1019C0001268881A32F0DAFE514908604C490968F9
:1019D0004A4A1268881A32F0D1FE044621464C4821
:1019E000006832F0EDFD4A4908604A4948480068FD
:1019F00032F0D8FE464908600846006832F0A2FE80
:101A000045490968081A44490860084600680028E2
:101A100033DA0020086030E03649354A126851F860
:101A20002210384A1268501A32F0A8FE384908606D
:101A300033490968314A1268881A32F09FFE044619
:101A400021463348006832F0BBFD31490860314916
:101A50002F48006832F0A6FE2D490860084600684D
:101A600032F070FE2C49096808442B49086008468A
:101A70000068FF2801DDFF20086028480078012861
:101A80000CD127480068782808DA254800782549CD
:101A90000870254800782549087004E00020214995
:101AA00008702249087012480068401C10490860FC
:101AB0000F480068B0F5FA7FFFF640AF17481849A5
:101AC0001B4A194BCDE9002102900A4A19480168C6
:101AD00009482BF067F91348007818B9002011491C
:101AE000087004E00F48007814380E4908703EBDB5
:101AF000340000203C0B00206C0300202800002054
:101B00002C00002030000020000C0140400000208C
:101B10003C00002000007F4338000020240000200B
:101B20002000002046000020180000204700002070
:101B30001C000020140000202DE9F843002021F0B3
:101B400067FC04466FF07F4016F034FF0022014628
:101B50000090204626F008F80021204625F0C2FE1D
:101B6000204615F031FA0546204615F02DFA0646B6
:101B700032221146284625F0CFFE32221146304649
:101B800025F0CAFE30461EF04FFC07461CA1384621
:101B90001FF0C0FC28461EF047FC80461AA14046B4
:101BA0001FF0B8FC20461EF03FFC1849086018A141
:101BB000164800681FF0AEFC00231A460221284692
:101BC00020F0E6FE00231A460321304620F0E0FE16
:101BD00000231A4609210D48006820F0D9FE002391
:101BE00007220E49304620F0CFFD002307220C4982
:101BF000284620F0C9FD204626F080FEBDE8F88387
:101C00006261636B0000000067657400A40200203D
:101C10004E6F496E7465726E657400002D0B01087D
:101C20000D0B010830B587B00020009001900290A4
:101C30000024964800889649088094484088488047
:101C4000924880888880002524E044214320FFF7C3
:101C500019FEADF8140046214520FFF713FEADF83C
:101C6000160048214720FFF70DFEADF81800BDF91A
:101C70001410009808440090BDF91610019808440B
:101C80000190BDF91810029808440290601CC4B27B
:101C9000681CC5B20A2DD8DB009890FBF4F000B2A6
:101CA0007A490880019890FBF4F000B248800298CD
:101CB00090FBF4F000B288800846B0F90000744947
:101CC000B1F90010401A4042002807DD7048B0F911
:101CD00000006E49B1F90010401A06E06B48B0F9F7
:101CE00000006B49B1F90010401A00B2ADF80C00C9
:101CF0006648B0F902006649B1F90210401A404244
:101D0000002807DD6248B0F902006049B1F902100D
:101D1000401A06E05D48B0F902005D49B1F90210D1
:101D2000401A00B2ADF80E005848B0F90400584906
:101D3000B1F90410401A4042002807DD5448B0F9B8
:101D400004005249B1F90410401A06E04F48B0F9B6
:101D500004004F49B1F90410401A00B2ADF8100068
:101D6000BDF90C00B0F5FA7F05DBBDF90C0041F2BE
:101D70008831884203DD4648008844490880BDF91F
:101D80000E00B0F5FA7F05DBBDF90E0041F2883197
:101D9000884203DD3E4840883C494880BDF9100038
:101DA000B0F5FA7F05DBBDF9100041F288318842B9
:101DB00003DD37488088354988803648B0F900000F
:101DC0003249B1F90010884203DD3248B0F9000011
:101DD00002E02E48B0F900002E4908800846B0F90C
:101DE00006002A49B1F90010884203DA2948B0F9FF
:101DF000060002E02548B0F900002649C8800846E0
:101E0000B0F902002149B1F90210884203DD2148EE
:101E1000B0F9020002E01D48B0F902001D494880F7
:101E20000846B0F908001949B1F90210884203DAEE
:101E30001848B0F9080002E01448B0F9020015494A
:101E400008810846B0F904001049B1F9041088422D
:101E500003DD1048B0F9040002E00C48B0F90400BA
:101E60000C4988800846B0F90A000849B1F9041005
:101E7000884203DA0748B0F90A0002E00348B0F9E3
:101E800004000449488107B030BD00004E00002026
:101E900048000020D02A002000BFFEE700B585B032
:101EA0000121080300F0C8FD4FF40070ADF80A00EE
:101EB0000020ADF80800ADF806004FF48270ADF8D0
:101EC00002000020ADF80400ADF80E004FF44040D1
:101ED000ADF800000720ADF810000020ADF80C00B0
:101EE0006946044800F0BEFF0121024800F09AFF55
:101EF00005B000BD0030014001E0FFF7D5FCFCE774
:101F000010B5142000F078FF00F060FF4FF48071EE
:101F10000548FFF7B5FC80210348FFF7B1FC052019
:101F200006F022FB10BD00000010014010B5044671
:101F3000142000F061FF80211148FFF79FFC05206D
:101F400006F012FB2CB14FF480710D48FFF798FC9E
:101F500004E04FF480710A48FFF790FC052006F07A
:101F600003FB80210648FFF78BFC052006F0FCFAF6
:101F700080210348FFF782FC052006F0F5FA10BD2A
:101F80000010014070B50024042000F035FF8021CE
:101F90001148FFF773FC052006F0E6FA002516E06D
:101FA00080210D48FFF76CFC052006F0DDFA600685
:101FB000040E4FF480710848FFF757FC044380215A
:101FC0000548FFF75BFC052006F0CEFA6D1C082DD6
:101FD000E6DB204670BD00000010014010B5142063
:101FE00000F00AFF80210D48FFF748FC4FF4807194
:101FF0000A48FFF743FC052006F0B6FA802107489F
:10200000FFF73EFC052006F0AFFA4FF4807103485D
:10201000FFF736FC052006F0A7FA10BD00100140BE
:1020200070B50446142000F0E7FE80211648FFF743
:1020300025FC052006F098FA002521E004F0800038
:1020400028B14FF480711048FFF71AFC04E04FF4F8
:1020500080710D48FFF712FC6006040E052006F0A3
:1020600083FA80210848FFF70BFC052006F07CFA74
:1020700080210548FFF702FC052006F075FA6D1C6B
:10208000082DDBDB70BD00000010014010B50420FE
:1020900000F0B2FE80210F48FFF7F0FB052006F0AC
:1020A00063FA80210B48FFF7EBFB052006F05CFA92
:1020B0004FF480710748FFF7D8FB08B1002400E017
:1020C000012480210348FFF7D9FB052006F04CFAD4
:1020D000204610BD0010014010B5142000F08CFE09
:1020E0004FF480710C48FFF7CBFB80210A48FFF7C3
:1020F000C7FB052006F038FA4FF480710648FFF759
:10210000BDFB052006F030FA80210348FFF7B6FB3F
:10211000052006F029FA10BD0010014010B5FFF7A8
:10212000EFFE01216B2000F05DFF00216C2000F02C
:1021300059FF0921192000F055FF06211A2000F04F
:1021400051FF18211B2000F04DFF18211C2000F02A
:1021500049FF10BD08B50121082000F06DFC4FF4C7
:102160004060ADF8000010208DF8030003208DF8CA
:10217000020069461448FFF7EDFA0121042000F03F
:102180005BFC4FF40160ADF8000010208DF80300F7
:1021900003208DF8020069460C48FFF7DBFA0121A5
:1021A000042000F049FCA020ADF8000018208DF8B4
:1021B000030069460548FFF7CDFA4FF40161034873
:1021C000FFF75EFB08BD0000000C01400008014065
:1021D00010B5FFF7BFFFFFF761FE10217E48FFF744
:1021E0004FFB4FF400617D48FFF74AFB4FF400615D
:1021F0007948FFF745FB4FF400617848FFF73EFB55
:102200000A2006F0A5F94FF400617448FFF738FB87
:102210001E2006F09DF9112000F056F9782006F0F6
:1022200097F9362000F050F9362000F04DF90020E3
:1022300000F03AF93A2000F047F9052000F034F9AF
:10224000212000F041F92A2000F03EF9002000F0A2
:102250002BF9002000F028F9002000F025F9EF20EC
:1022600000F022F92B2000F02FF9002000F01CF9DB
:10227000002000F019F9002000F016F9EF2000F01E
:1022800013F9B22000F020F90C2000F00DF90C2019
:1022900000F00AF9002000F007F9332000F004F9FB
:1022A000332000F001F9B72000F00EF9352000F0DE
:1022B000FBF8BB2000F008F91F2000F0F5F8C02063
:1022C00000F002F92C2000F0EFF8C22000F0FCF83A
:1022D000012000F0E9F8C32000F0F6F8122000F029
:1022E000E3F8C42000F0F0F8202000F0DDF8C6206C
:1022F00000F0EAF80F2000F0D7F8D02000F0E4F862
:10230000A42000F0D1F8A12000F0CEF8E02000F0E9
:10231000DBF8D02000F0C8F8082000F0C5F8112044
:1023200000F0C2F8082000F0BFF80C2000F0BCF864
:10233000152000F0B9F8392000F0B6F8332000F08D
:10234000B3F8502000F0B0F8362000F0ADF81320BC
:1023500000F0AAF8142000F0A7F8292000F0A4F853
:102360002D2000F0A1F8E12000F0AEF8D02000F020
:102370009BF8082000F098F8102000F095F808204D
:1023800000F092F8062000F08FF8062000F08CF89C
:10239000392000F089F8442000F086F8512000F040
:1023A00083F80B2000F080F8162000F07DF8142050
:1023B00000F07AF82F2000F077F8312000F074F860
:1023C000292000F081F8002000F098F84FF4806197
:1023D0000248FFF753FA10BD00080140000C01400D
:1023E00010B5044600BF0221094800F030FD002866
:1023F000F9D02146064800F033FD00BF0121044812
:1024000000F025FD0028F9D101488089C0B210BD37
:10241000003001402DE9F04104460D4616461F46A6
:102420002049087B00F050F81E49097C2144C1F383
:10243000072000F039F81B49097C2144C8B200F09C
:1024400033F81849097C3144C1F3072000F02CF817
:102450001449097C3144C8B200F026F81149887B40
:1024600000F032F80F49497C2944C1F3072000F0FD
:102470001BF80C49497C2944C8B200F015F80949F9
:10248000497C3944C1F3072000F00EF80549497C26
:102490003944C8B200F008F80249087A00F014F88C
:1024A000BDE8F0815A03002010B50446102105480C
:1024B000FFF7E4F92046FFF793FF10210148FFF7EB
:1024C000DFF910BD0008014010B5044610210A488C
:1024D000FFF7D4F94FF400610748FFF7CFF9204622
:1024E000FFF77EFF4FF400610348FFF7C9F91021A1
:1024F0000148FFF7C5F910BD0008014010B50446BA
:102500002A20264988812B20C8812C20088134B1BB
:10251000012C13D0022C20D0032C3CD12CE04FF402
:10252000B4701E4908804880002008744874362022
:10253000FFF7CAFF0020FFF7B7FF2DE04FF4B4709C
:102540001649088048800020087448743620FFF738
:10255000BBFF6020FFF7A8FF1EE04FF4B4700F49E7
:10256000088048800020087448743620FFF7ACFFCC
:10257000C020FFF799FF0FE04FF4B47007490880BF
:1025800048800020087448743620FFF79DFFA02083
:10259000FFF78AFF00E000BF00BF10BD5A03002014
:1025A00010B54FF400610D48FFF768F900F09AF894
:1025B0004FF480610948FFF761F9022005F0D4FF6C
:1025C0004FF400610548FFF75BF9022005F0CCFFEE
:1025D0004FF400610148FFF751F910BD00100140B0
:1025E00008B50121102000F027FA4FF44060ADF843
:1025F000000010208DF8030003208DF802006946CA
:102600000648FFF7A7F84FF400610448FFF738F9D0
:102610004FF480610148FFF733F908BD0010014015
:1026200010B54FF400610D48FFF728F900F05AF893
:102630004FF480610948FFF723F9022005F094FF69
:102640004FF400610548FFF71BF9022005F08CFFED
:102650004FF400610148FFF711F910BD001001406F
:1026600070B50546002400F02BF800261BE04FF45F
:1026700000611248FFF702F9022005F075FF4FF4E0
:1026800000610E48FFF7FCF86006040E4FF480610D
:102690000A48FFF7EAF808B1601CC4B2012005F04F
:1026A00063FF701CC6B2082EE1DB15B9FFF7B8FF57
:1026B00001E0FFF775FF204670BD000000100140EB
:1026C00008B54FF48060ADF8000003208DF80200DB
:1026D00048208DF8030069460148FFF73BF808BD24
:1026E0000010014008B54FF48060ADF800000320F1
:1026F0008DF8020010208DF8030069460148FFF7AD
:1027000029F808BD0010014070B50446FFF7EAFF44
:102710004FF400611548FFF7B1F8002523E0E00908
:1027200028B14FF480611148FFF7AAF804E04FF494
:1027300080610E48FFF7A2F86006040E022005F043
:1027400013FF4FF400610948FFF79AF8022005F0E3
:102750000BFF4FF400610548FFF790F8022005F0E9
:1027600003FF681CC5B2082DD9DB70BD0010014005
:1027700010B5FFF7B7FF4FF480610C48FFF780F802
:102780004FF400610948FFF77BF8042005F0ECFEE8
:102790004FF480610548FFF771F8042005F0E4FE6E
:1027A0004FF400610148FFF769F810BD00100140C7
:1027B00010B5FFF797FF4FF400610C48FFF75EF884
:1027C0004FF480610948FFF759F8042005F0CCFE6A
:1027D0004FF400610548FFF753F84FF48061034858
:1027E000FFF74EF8042005F0BFFE10BD00100140B9
:1027F00010B50024FFF764FF4FF480611248FFF723
:102800003FF8012005F0B0FE4FF400610E48FFF7DD
:1028100037F8012005F0A8FE07E0601CC4B2FA2CCE
:1028200003DDFFF7C5FF012010BD4FF480610648AE
:10283000FFF71BF80028F0D14FF400610248FFF7C2
:102840001DF80020F0E700000010014008B501214C
:10285000082000F0F1F80220ADF8000048208DF8C3
:10286000030069461948FEF775FFFFF7B9FE00F04F
:102870002FF8C02102202AF011FA002103202AF0AB
:102880000DFA002104202AF009FA002105202AF07F
:1028900005FA002106202AF001FA0F2108202AF06B
:1028A000FDF9032109202AF0F9F927210A202AF04D
:1028B000F5F924210C202AF0F1F924210D202AF029
:1028C000EDF97F2110202AF0E9F908BD000C014044
:1028D00010B5402109202AF0E1F9402109202AF011
:1028E000DDF910BD00BFFEE770B58CB006460C46A2
:1028F00015460121084600F07FF80F48FEF79EFDBF
:1029000001960294102003900495002005908020E9
:10291000069000200790089009904FF480500A908C
:1029200000200B9001A90448FEF756FE0121024841
:10293000FEF778FD0CB070BD30000240704708B55E
:102940004FF4806000F048F803208DF8000000206C
:102950008DF801008DF8020001208DF80300684613
:1029600000F002F808BD000070B5002100230F221E
:10297000C47804B3154C246804F4E064C4F5E0643E
:10298000210AC1F10403CA40447804FA03F18478AF
:102990001440214309010E4C0678A155047804F037
:1029A0001F050124AC4005786D11AD0005F1E0254F
:1029B000C5F8004109E0047804F01F050124AC408B
:1029C000044D0678761145F8264070BD0CED00E008
:1029D00000E400E080E100E002490143024A1160A6
:1029E000704700000000FA050CED00E001490862A4
:1029F0007047000000000E4229B1064A52690243A6
:102A0000044B5A6104E0034A52698243014B5A6104
:102A1000704700000010024029B1064AD269024303
:102A2000044BDA6104E0034AD2698243014BDA6164
:102A3000704700000010024029B1064A9269024323
:102A4000044B9A6104E0034A92698243014B9A6104
:102A5000704700000010024030B500210022002421
:102A600000232D4D6D6805F00C0121B1042905D01E
:102A7000082923D105E0294D056022E0274D056096
:102A80001FE0254D6D6805F47012234D6D6805F447
:102A90008034022505EB92421CB9214D5543056057
:102AA0000BE01D4D6D6805F400351DB11C4D5543FF
:102AB000056002E0194D5543056002E0174D0560C1
:102AC00000BF00BF144D6D6805F0F0010909154DF8
:102AD0006B5C0568DD4045600F4D6D6805F4E06195
:102AE000090A104D6B5C4568DD4085600A4D6D68D4
:102AF00005F46051C90A0B4D6B5C4568DD40C5604B
:102B0000054D6D6805F44041890B074D6B5CC56848
:102B1000B5FBF3F5056130BD0010024000127A00EC
:102B200000093D00610000207100002010B5014641
:102B30000022002300204A11012A02D1094C2368F7
:102B400006E0022A02D1074C236A01E0054C636AC1
:102B500001F01F02012494401C400CB1012000E050
:102B6000002010BD001002400149086070470000BD
:102B70008004424201490860704700003C04424220
:102B80000249096A0143014A11627047001002407C
:102B9000024909888143014A118070470428004096
:102BA00010B50121C806FFF737FF01210807FFF71D
:102BB00033FF0120FFF71AFF0120FFF7D5FF00BF09
:102BC0006120FFF7B3FF0128FAD14002FFF7D8FFD9
:102BD0000120FFF7CFFF00F0E7F800F0DBF801215C
:102BE000084600F071F800F0D5F849F63F4000F0D3
:102BF000C1F800F0CFF800F089F800F0CBF810BD74
:102C00000348008840F01000014908807047000028
:102C100004280040034800884FF6EF71084001493E
:102C2000088070470428004010B58CB000F020F8F0
:102C300000F5E1400B900BA8FDF76EFD04462C2239
:102C400021466846FDF7ADFC059800F26C70074917
:102C500008800498401C4880039888800298C880A7
:102C600001980881009848810CB010BD0000002038
:102C7000002103480188001F008841EA0040704796
:102C80001C28004001460020064A12880A40D0B2A3
:102C9000044A121F12880A4012B108B1012000E054
:102CA000002070470428004010B50120FFF7EAFF1C
:102CB00038B10120FFF76CFF01200249086000F0E5
:102CC00069F810BD1000002029B1064A128802439D
:102CD000044B1A8004E0034A12888243014B1A8095
:102CE000704700000028004010B5FFF759FFFFF7BC
:102CF00057FFFFF724FE10BD10B5044600BF204665
:102D000000F02AF800F046F810BD000010B58CB0B5
:102D100010480088A0F26C7006900E484088401E53
:102D200005900C48808804900A48C08803900948A0
:102D30000089029007484089019001A8FDF711FD24
:102D4000A0F5E144204600F007F800F023F80CB0AD
:102D500010BD00000000002000B50246FFF750FF44
:102D6000100C03490880091D0A80FFF753FF00BDBE
:102D70001828004000B50246FFF742FFC2F30340A7
:102D800003490880091D0A80FFF744FF00BD0000C9
:102D90000828004000BF0348008800F020000028F9
:102DA000F9D0704704280040074800884FF6F771B3
:102DB00008400549088000BF0348008800F008006B
:102DC0000028F9D0704700000428004008B5012110
:102DD0001020FFF731FE14208DF803008020ADF89D
:102DE000000003208DF8020069460248FEF7B2FC9D
:102DF00008BD00000010014038B504460121102034
:102E0000FFF71AFE8DF803404FF48070ADF8000014
:102E100003208DF8020069460148FEF79BFC38BD8F
:102E20000010014021B1028842F04002028004E01B
:102E300002884FF6BF731A40028070471AB1838828
:102E40000B43838002E083888B4383807047024674
:102E5000002013890B400BB1012000E000207047D7
:102E60008181704710B50022028802F441520B881C
:102E70004C8823438C882343CC8823430C892343E9
:102E80004C8923438C892343CC8923431A430280F2
:102E9000838B4FF2FF74234083830B8A038210BD20
:102EA00010B500F001F810BD0CB5002001900090A5
:102EB0003348006840F480303149086000BF304832
:102EC000006800F4003000900198401C01900098C8
:102ED00018B90198B0F5A06FF1D12948006800F445
:102EE000003010B10120009001E000200090009817
:102EF000012843D12348006840F0100021490860B0
:102F00000846006820F0030008600846006840F0AA
:102F1000020008601A48406819494860084640683D
:102F200048600846406840F4806048600846406851
:102F300020F47C1048600846406840F4E81048607F
:102F40000846006840F08070086000BF0C480068C8
:102F500000F000700028F9D00948406820F0030014
:102F6000074948600846406840F00200486000BFDA
:102F70000348406800F00C000828F9D10CBD00009F
:102F8000001002400020024070B50446FFF7A4F88C
:102F9000D020FFF745F8FFF779F818B9FFF71EF8CA
:102FA000002070BD2046FFF73BF8FFF76FF818B917
:102FB000FFF714F80020F4E7FFF78EF8D120FFF7B1
:102FC0002FF8FFF763F818B9FFF708F80020E8E7D3
:102FD000FEF7D8FF05460120FEF7A8FFFEF7FEFF2B
:102FE0002846DEE770B505460C46FFF775F8D02099
:102FF000FFF716F8FFF74AF808B9FEF7EFFF284683
:10300000FFF70EF8FFF742F808B9FEF7E7FF204692
:10301000FFF706F8FFF73AF808B9FEF7DFFFFEF70B
:10302000DDFF70BD10B500BFBF2080F31188BFF376
:103030004F8FBFF36F8F00BF31F086F918B14FF09B
:1030400080500449086000BF002080F3118800BF51
:1030500010BD000004ED00E010B51348006840F01A
:1030600001001149086008464068104908400E49AF
:103070004860084600680E4908400B490860084649
:10308000006820F4802008600846406820F4FE00B4
:1030900048604FF41F008860FFF702FF4FF00060A8
:1030A0000449086010BD0000001002400000FFF855
:1030B000FFFFF6FE08ED00E010B50121880700F0E3
:1030C0000AF8012803D10121800700F001F810BDA2
:1030D000CA430282704730B5024600200023002414
:1030E000158A05EA0103958905EA010413B10CB1BB
:1030F000012000E0002030BD10B540F22551074806
:1031000000F043F8012807D1044800F0F9F8C4B2F0
:103110002146024800F0F9F810BD000000380140D7
:1031200010B540F22551094800F02FF801280BD1C5
:10313000064800F0E5F8C1B2054802680068401C86
:10314000034B18600348815410BD00000044004048
:1031500078000020DC2A002021B1828942F400524C
:10316000828104E082894DF6FF731A4082817047A4
:1031700002460020B1F5007F00D100BF13880B404C
:103180000BB1012000E00020704770B5024600241A
:1031900000230025002040F66A16B14200D100BF8E
:1031A000C1F3421501F01F03012606FA03F3012DB6
:1031B00002D19689334006E0022D02D1168A3340AF
:1031C00001E0968A33400C12012606FA04F41688B0
:1031D000344013B10CB1012000E0002070BDF0B507
:1031E0000346002400260025002040F66A17B94255
:1031F00000D100BF1846C1F3421401F01F06012799
:1032000007FA06F5012C01D10C3004E0022C01D1A3
:10321000103000E014301AB107682F43076002E055
:103220000768AF430760F0BD2DE9F04786B005465B
:103230000E460024A24600BFA1460027B08900B177
:1032400000BF2F462C8A4CF6FF700440F0880443E0
:103250002C82AC894EF6F3100440B08831890843C3
:10326000718908430443AC81AC8A4FF6FF400440A7
:10327000B0890443AC8201A8FFF7EEFB1F488742E8
:1032800002D1DDF810A001E0DDF80CA0A88900F45F
:10329000004040B10AEBCA0000EB0A103168490057
:1032A000B0FBF1F807E00AEBCA0000EB0A10316846
:1032B0008900B0FBF1F86420B8FBF0F004012009AC
:1032C000642101FB1089A88900F4004040B132203C
:1032D00000EBC900B0FBF1F000F00700044308E088
:1032E000322000EB09106421B0FBF1F000F00F0078
:1032F00004432C8106B0BDE8F0870000003801408F
:1033000001468888C0F308007047C1F30802828034
:10331000704700BFFEE7000070B5044600250BE0D3
:1033200000BF80210648FFF723FF0028F9D0615D28
:103330000348FFF7EAFF6D1C605D0028F0D170BD07
:103340000038014010B504460BE014F8011B074893
:10335000FFF7DBFF00BF80210448FFF709FF0028CB
:10336000F9D020780028F0D110BD000000440040C2
:103370002DE9F04F87B0002020F04AF806466FF0A4
:103380007F4015F017FB002201460090304624F0E4
:10339000EBFB0021304624F0A5FA30461CF05CFE21
:1033A0000746304627F07AFE0446304627F076FE80
:1033B0000546304613F008FE8046304613F004FE02
:1033C0008146304613F000FE8246304613F0FCFD85
:1033D000834619223C21404624F09EFA19225021AE
:1033E000484624F099FA40461DF01EF806903046F3
:1033F0001DF01AF8059030461DF016F8049050465E
:103400001DF012F8039058461DF00EF80290484641
:103410001DF00AF8019041A106981EF023F841A181
:1034200005981EF01FF842A104981EF01BF843A156
:1034300003981EF017F841A102981EF013F841A15D
:1034400001981EF00FF800236FF045020321484653
:103450001FF09EFA00231A46032140461FF098FAF7
:1034600023230022032150461FF092FA5523002205
:10347000032158461FF08CFA0121204628F0A6F8B7
:103480009621204624F048FC0121284628F09EF889
:103490009621284624F040FC1323002201210598A0
:1034A0001FF076FA46230022012104981FF070FADB
:1034B00023230022012120461FF06AFA552300220F
:1034C000012128461FF064FA002307221F494046C5
:1034D0001FF05AF9002307221D4948461FF054F9EE
:1034E000234607221B4950461FF04EF92B46072260
:1034F000194958461FF048F93B4600221749204613
:103500001FF042F93B460022144928461FF03CF9BF
:10351000304625F0F3F907B0BDE8F08F4261636BE8
:1035200000000000757365726E616D653A00000001
:1035300070617373776172643A00000075706C6F2C
:1035400061640000636F6E6E656374004D0B01086B
:103550006D0B0108913301085D330108891E0308D2
:1035600070B50446002508E02168481C20600878F2
:10357000303805EB850100EB41052168087800F043
:1035800004F80028F0D1284670BD0146302903DB3D
:10359000392901DC012070470020FCE710B54421E7
:1035A000074800F0B4FF00221E21064828F0EEF97B
:1035B0000549086002F03EFB00200449087010BD78
:1035C000A4410020155D0008040200200002002034
:1035D00030B50346B1F90040B2F90050AC4202DD0B
:1035E000B1F9004001E0B2F900401C80B1F902409D
:1035F000B2F90250AC4202DDB1F9024001E0B2F989
:1036000002405C80B1F90440B2F90450AC4202DAE5
:10361000B1F9044001E0B2F904409C80B1F90640E0
:10362000B2F90650AC4202DAB1F9064001E0B2F953
:103630000640DC800120B3F90040B3F90450AC42ED
:1036400005DCB3F90240B3F90650AC4200DD0020BE
:1036500030BDF8B504460D4616460027B4F9000003
:10366000B5F90010884212DBB4F90200B5F9021076
:1036700088420CDBB4F90400B5F90410884206DC7A
:10368000B4F90600B5F90610884200DC01270FB92D
:103690000020F8BD0EB90120FBE72088ADF800003E
:1036A0006088ADF8020032466946284600F0A7F867
:1036B00008B90020EDE7A088ADF800006088ADF8FB
:1036C000020032466946284600F099F808B9002001
:1036D000DFE72088ADF80000E088ADF80200324650
:1036E0006946284600F08BF808B90020D1E7A08889
:1036F000ADF80000E088ADF8020032466946284681
:1037000000F07DF808B90020C3E70120C1E70246B8
:10371000B2F90000B1F90430984213DCB2F90400A8
:10372000B1F9003098420DDBB2F90200B1F9063070
:10373000984207DCB2F90600B1F90230984201DB89
:10374000012070470020FCE7F8B504460D461646F8
:10375000B4F90400B5F90010884211DBB4F9060091
:10376000B5F9021088420BDBB4F90000B5F904107A
:10377000884205DCB4F90200B5F90610884201DD83
:103780000120F8BD0EB90020FBE72088ADF800004D
:103790006088ADF8020032466946284600F02FF8EE
:1037A00008B10020EDE7A088ADF800006088ADF812
:1037B000020032466946284600F021F808B1002090
:1037C000DFE72088ADF80000E088ADF8020032465F
:1037D0006946284600F013F808B10020D1E7A08818
:1037E000ADF80000E088ADF8020032466946284690
:1037F00000F005F808B10020C3E70120C1E72DE97A
:10380000FC5F05460E4614464FF0000AB6F900006C
:10381000B5F90010884213DBB6F90000B5F90410C1
:1038200088420DDCB6F90200B5F90210884207DBC8
:10383000B6F90200B5F90610884201DC4FF0010A22
:10384000BAF1000F02D10020BDE8FC9F002C01DC82
:103850000120F9E7284613F004F9834600EBDB70FA
:103860004710284613F06EF8834600EBDB704FEAF2
:103870006008474501DA384600E0404681464C453D
:1038800000DD4C462888ADF800002888204400B2AE
:10389000ADF804006888ADF802006888204400B2E2
:1038A000ADF80600002231466846FFF7A8FF80B158
:1038B000BDF80400204400B2ADF80400BDF80600D5
:1038C000204400B2ADF806003146684624F016FCEC
:1038D000BAE7E888001B00B2ADF80200E888ADF84E
:1038E0000600002231466846FFF789FF80B1BDF827
:1038F0000400204400B2ADF80400BDF80200001B33
:1039000000B2ADF802003146684624F0F7FB9BE7B1
:10391000A888001B00B2ADF80000A888ADF804002C
:10392000002231466846FFF76AFF80B1BDF800000B
:10393000001B00B2ADF80000BDF80200001B00B291
:10394000ADF802003146684624F0D8FB7CE7688871
:10395000ADF802006888204400B2ADF806000022ED
:1039600031466846FFF74BFF80B1BDF80000001BF1
:1039700000B2ADF80000BDF80600204400B2ADF87A
:1039800006003146684624F0B9FB5DE701205BE79D
:1039900010B5B1F90030B2F90040A34202DAB1F932
:1039A000003001E0B2F900300380B1F90230B2F921
:1039B0000240A34202DAB1F9023001E0B2F902306A
:1039C0004380B1F90430B2F90440A34202DDB1F9F9
:1039D000043001E0B2F904308380B1F90630B2F965
:1039E0000640A34202DDB1F9063001E0B2F906302B
:1039F000C38010BD2DE9FF41044627F068FF05464E
:103A00000020039034B14749E0680860204628F060
:103A1000D5F803E016F07CF942490860414909688D
:103A2000086924F0FFF93F480068406920B13D492A
:103A30000968486924F0F6F93A490968C86924F028
:103A4000F1F938490968086A24F0ECF9354800684A
:103A5000006940B9002033490968A1F8500100BF4E
:103A600000BFBDE8FF8124F019FC2AF0DBFE2D48E1
:103A70000068B0F8500100284BD02A480068006860
:103A8000007CC0F34000E8B12648006816F0BEF99B
:103A9000401E06B22348006816F052F9401E07B2D5
:103AA0003B460022114601A8009613F01FF801A81A
:103AB0001C4909680968C96B48601A48006805F024
:103AC00073FF00BF4FF480711648006830301EF05D
:103AD000B3FA20211348006800F598701EF0ACFA84
:103AE000002010490968A1F85001284627F0E2FE9D
:103AF00003900C4800680068406A50B109490968A1
:103B000008680849096809684B6A07490A680399FF
:103B100098471EF009F800F03FF800F007F800BFE2
:103B20009FE70000C0000020BC00002010B500246A
:103B300016E0C4EBC4000C4951F8200030B1C4EBCE
:103B4000C401094A52F821001EF0A0F8C4EBC401D8
:103B5000054A02EB81001C211EF06EFA601CC4B203
:103B6000042CE6DB10BD0000544200200146094A47
:103B700010680BE042688A4202D002688A4204D18F
:103B8000027E22F00102521C027640690028F1D127
:103B900070470000940000207047000010B5042119
:103BA000014800F0B4FC10BD9841002010B5202160
:103BB000014800F0ACFC10BDB04100202DE9FF47EA
:103BC00004460D4616461F46DDE90C896FB9B8F567
:103BD000807F0AD1002020806080681E00B2A08013
:103BE000701E00B2E080BDE8FF87002000900190C9
:103BF00002900390ADF80450ADF80A60ADF80C5097
:103C0000ADF80E604B4642463946684624F0ACF9A2
:103C10004B464246394601A824F0A6F94B46424697
:103C2000394602A824F0A0F94B464246394603A87B
:103C300024F09AF9BDF90000BDF90410884202DAB7
:103C4000BDF9000001E0BDF90400BDF90810BDF99F
:103C50000C20914202DABDF9081001E0BDF90C1008
:103C600088420BDABDF90000BDF90410884202DA7F
:103C7000BDF900000DE0BDF904000AE0BDF908003F
:103C8000BDF90C10884202DABDF9080001E0BDF967
:103C90000C00801E00B22080BDF90000BDF90410A8
:103CA000884202DDBDF9000001E0BDF90400BDF964
:103CB0000810BDF90C20914202DDBDF9081001E0A9
:103CC000BDF90C1088420BDDBDF90000BDF90410F0
:103CD000884202DDBDF900000DE0BDF904000AE0F4
:103CE000BDF90800BDF90C10884202DDBDF90800DD
:103CF00001E0BDF90C00801C00B2A080BDF90210EB
:103D0000BDF90600814202DABDF9020001E0BDF909
:103D10000600BDF90A20BDF90E108A4202DABDF98B
:103D20000A1001E0BDF90E1088420BDABDF902104D
:103D3000BDF90600814202DABDF902000DE0BDF9CD
:103D400006000AE0BDF90A10BDF90E00814202DA50
:103D5000BDF90A0001E0BDF90E00801E00B26080CE
:103D6000BDF90210BDF90600814202DDBDF9020075
:103D700001E0BDF90600BDF90A20BDF90E108A4226
:103D800002DDBDF90A1001E0BDF90E1088420BDD1D
:103D9000BDF90210BDF90600814202DDBDF9020045
:103DA0000DE0BDF906000AE0BDF90A10BDF90E00EC
:103DB000814202DDBDF90A0001E0BDF90E00801C60
:103DC00000B2E08000BF0EE72DE9F74F81461746AD
:103DD00000245948008820B900BF00BF0020BDE87A
:103DE000FE8F5648066800251AE005EB450000EBFB
:103DF000C50006EB8000806A514988420EDD05EB64
:103E0000450000EBC50006EB8000806A401E05EB14
:103E1000450101EBC50106EB81018862681C85B292
:103E2000454800888542E0DB002534E0BDF8040009
:103E300005EB450101EBC50106EB810109898842CB
:103E400027D105EB450000EBC50006EB8000C068FC
:103E5000B8421ED105EB450000EBC50006EB800023
:103E6000416848461AF010FE98B105EB450000EB9A
:103E7000C50006EB8004A16AE0690844A062A06A5C
:103E8000B0F57A7F02DD4FF47A70A06200BF00BF08
:103E900005E0681C85B2284800888542C6DB00BF63
:103EA0000CB120469BE73446012511E005EB4500A7
:103EB00000EBC50006EB8000806AA16A884205DA43
:103EC00005EB450000EBC50006EB8004681C85B2DD
:103ED000194800888542E9DB606820B120461BF064
:103EE000BBFA00BF01E000BF00BF27F0F0FC824634
:103EF0003B4649462046019A1BF010FB8046B8F12C
:103F0000000F0AD100BF00BF2C2120461EF094F8FC
:103F10004FF00040A062002061E70020A062E0694D
:103F200018B9504627F0C6FCE061E06908B90120E5
:103F3000E061204653E70000D8000020180200206E
:103F40000100008010B51421114800F0E0FA1BF0C8
:103F500097FA044600BF1CB900BF00BF00BFFEE7D0
:103F600000BF14B900BF00BF10BD0A4920461BF0B6
:103F70006FFB094920461BF06DFB084920461BF0EA
:103F80006BFB074920461BF061FB00BFECE700001C
:103F9000BC41002099EC01086DF101088DF3010886
:103FA00061EC010870B504460D46102128461EF04C
:103FB00043F820680078012804D1208A2880608A8C
:103FC00068800CE020680078022802D1E068686010
:103FD00005E020680078042801D10A206860206884
:103FE000406820B1206829464268904701E000BF40
:103FF00000BF70BD2DE9FE430446A66AEEB9A18A52
:10400000208A084401B2A182E18A608A084401B290
:10401000E18220460DF03FFA06460EB9BDE8FE8368
:10402000204610F0F5FB00220921304619F0ECFD86
:104030006078C0F3400000B1F0E7208A10B9608AD0
:10404000002874D000200290019094F83C0000F009
:104050000F00032812D1304620F0AAF80746304658
:1040600020F02EF8804603200090B4F910103B4653
:10407000424630460CF0E2FB029012E0304620F05F
:1040800019F9074630461FF08DFF80460C2000903E
:10409000B4F9121043463A4630460CF0CFFB01907B
:1040A00000BF30461FF0DEFF054605F0010028B9CD
:1040B000BDF90800002801DD0020029005F0020093
:1040C00028B9BDF90800002801DA0020029005F0A7
:1040D000040028B9BDF90400002801DD002001908A
:1040E00005F0080028B9BDF90400002801DA002015
:1040F000019001AA02A920462BF074FBBDF904200F
:10410000BDF90810304600F0C3FA6078C0F34000F3
:1041100000B183E7A08ABDF80810084401B2A1826B
:10412000E08ABDF80410084401B2E18200BF00BF7C
:1041300074E72DE9F84F0446D4F828B0BBF1000F1E
:1041400001D1BDE8F88F94F83C0000F00F0000B9F1
:10415000F7E71BF025FD06463068477E40215846AC
:1041600021F016FD10B9002161832183584620F00B
:104170008DF88046584620F093F8054694F83C00A8
:1041800000F00F000C2843D1002121831DBBB4F99E
:104190001A00C7F164014843642190FBF1F001B2B9
:1041A000618358461FF0FEFE8146584620F082F893
:1041B00082460C200090B4F91A104B4652465846DD
:1041C0000CF03CFB6083B4F91A20002319465846D2
:1041D00023F078F869E020462BF05BFB009000218B
:1041E00061836A4620462BF0FDFABDF9003041F6A6
:1041F000FF72514258460DF0F7FA8146BDF80000B3
:10420000484402B201230021584623F05BF84CE0F9
:1042100094F83C0000F00F00032846D10021618390
:10422000B8F1000F23D1B4F91800C7F16401484375
:10423000642190FBF1F001B2218358461FF040FF4A
:10424000814658461FF0B4FF824603200090B4F91F
:10425000181053464A4658460CF0F0FA2083B4F939
:10426000181000231A46584623F02CF81DE020466B
:104270002BF0F4FA009000212183002269462046A9
:104280002BF0B0FABDF9003041F6FF7251425846AA
:104290000DF010FA8146BDF80000484401B2012338
:1042A0000022584623F00EF800BF208B002860D172
:1042B000608B00285DD11DBB58461FF0FBFF814677
:1042C00058461FF06FFE8246B9F1000F02DCBAF1CA
:1042D000000F14DDB9F1000F06DA01234A46002170
:1042E000584622F0EFFF0AE0BAF1000F07DA012387
:1042F000CAF1000002B20021584622F0E3FF00BFDD
:10430000B8F1000F23D158461FF0DAFE8146584617
:104310001FF04EFF8246B9F1000F02DCBAF1000F28
:1043200014DDB9F1000F06DA012300224946584690
:1043300022F0C8FF0AE0BAF1000F07DA01230022D9
:10434000CAF1000001B2584622F0BCFF00BF32465D
:104350000A21584619F058FC6078C0F3400000B1BB
:10436000EFE694F83C0020F00F0184F83C100021A7
:10437000A16200BFE5E62DE9FF4104460F4614B9EE
:1043800015F0C6FC04460CB9BDE8FF81204615F0C7
:1043900058FD00B9F8E794F82800C0F3800010B188
:1043A00000BF00BFF0E71FB90020A4F85001EBE701
:1043B0000020ADF80800ADF80A00204615F0C0FC5A
:1043C000401E00B2ADF80C00204615F01FFD401E47
:1043D00000B2ADF80E0002AA39466846FFF7F8F8B9
:1043E000064606B9D0E72068007CC0F3400060B103
:1043F00002982063039860630120A4F8500160686C
:1044000010B1606827F0E6FBBEE72068806918B14C
:10441000206869468269904700250BE004F130006E
:1044200000EBC50100226846FFF713F900B1ABE7C6
:10443000681C85B2B4F85001A842EFDCB4F8500112
:10444000202809DAB4F8502104F1300101EBC20050
:10445000694612F0DEF90BE00020A4F85001B4F830
:10446000502104F1300101EBC20002A912F0D1F990
:10447000B4F85001401CA4F85001606810B16068A5
:1044800027F0A8FB00BF7FE770B50546284600F07F
:1044900013F8044600260CE02146284600F024F8D4
:1044A00006462146284600F086F820461DF0EEFB21
:1044B0003446002CF0D170BD014609B90020704788
:1044C0004868FCE770B5064600243046FFF7F4FF65
:1044D000054605E0641C2946304600F005F805460F
:1044E000002DF7D1204670BD02460B461068001D16
:1044F00003441868704702460B4610680344186866
:104500007047014609B9002070478868FCE700221F
:1045100042608260CA1C22F003010160704770B5DE
:104520000446216801F108001DF0D2FA0546A5B144
:1045300000222946204629F0B5F92946204662681E
:1045400029F0A2F9606820B12A462046616829F066
:10455000A9F96560A06800B9A560284670BD70B56E
:104560000446216801F108001DF0B2FA0546A5B124
:1045700000222946204629F087F929462046A268CC
:1045800029F090F9A06820B12A462046A16829F0B8
:104590007BF9A560606800B96560284670BD01467A
:1045A00009B901207047486818B9886808B901201E
:1045B000F8E70020F6E72DE9F04104460D460CB976
:1045C000BDE8F0812046FFF777FFA8420FD12946CA
:1045D0002046FFF789FF6060606810B90020A06086
:1045E0002FE000222046616829F05CF929E020468E
:1045F000FFF787FFA8420FD129462046FFF77BFF30
:10460000A060A06810B9002060601AE00022204677
:10461000A16829F039F914E029462046FFF76BFF1D
:10462000064629462046FFF75FFF07463A463146D1
:10463000204629F029F932463946204629F032F938
:1046400000BF00BFBCE710B504462068806818B101
:1046500020682146826890472068006828B1206859
:10466000006820602046FFF7EEFF10BD0146886815
:1046700018B18868B0F9160070470020FCE70146C1
:10468000886818B18868807E800970470020FCE740
:104690002DE9F04104460D4616461DB916B9012014
:1046A000BDE8F08120461EF0BFFBA068008A2844C8
:1046B00000B2A1680882A068408A304401B2A068B4
:1046C0004182012332462946204621F0F5FE002290
:1046D0000B21204619F098FA0746012F01D03846E1
:1046E000DEE7204621F011FE0120D9E7F7B582B0C0
:1046F00004460E4614B9049805B0F0BD00BF61220F
:104700003146204620F004FF0190019D00BFBDB15D
:104710002868A8B100BF62223146204620F0F8FE8A
:1047200001900198C0B207464FB13A462B6828461F
:10473000049998470190BDF80400ADF8100000BF3F
:104740000498D9E72DE9F04F95B004468B46914681
:104750009A461E9D608C20F00400001D6084A4F821
:1047600020902A895946204620F0D2FE1490A4F8C1
:1047700020A02A895946204620F0CAFE1390608C5A
:1047800020F004006084DDE9131088420CD1DDE9DB
:104790001310884208D1BDF85000BDF84C10884273
:1047A00002D115B0BDE8F08FA4F820902A895946AF
:1047B000204620F0ADFE1490A4F820A059462046D3
:1047C0000EF06AFD12902989129A1068149A25F049
:1047D00049FD28890B2833D147F6FF711498884288
:1047E00002D0139888422BD1204621F074F9009012
:1047F00000EBD070471020461FF06CFB009000EBE0
:10480000D0704FEA600847F6FF711498884208D1CB
:10481000781C08F10101884200DA01E008F101008A
:10482000149047F6FF711398884208D1781C08F15C
:104830000101884200DA01E008F10100139000BF95
:104840002348FFF76CFE064600BF1EB900BF00BF3D
:1048500000BFFEE700BF06B9A3E71498F060139805
:10486000306134602889B080C6F808B001A811F022
:104870008FF9314601A811F04AFA164901A811F042
:104880000FFA1548039000BF144901A811F016FA59
:10489000FF22002101A811F028FA298801A811F0AF
:1048A00016FA698801A811F0F4F9E868089000BFC9
:1048B00001A8002190F8422061F3000280F8422014
:1048C00000BF2869079001A811F038FA00BF68E717
:1048D000C8410020F5320308453503087534030844
:1048E00010B514210148FFF712FE10BDC841002089
:1048F0002DE9FE4F04460F4690464FF00009002573
:104900004CE1E06800EBC5004068C0F3406000B1D6
:1049100043E1E16801EBC501496821F07F4023F0E4
:1049200047FA064626EA070008B9012000E0002001
:10493000029026EA080008B9012000E0002001905A
:10494000DDE90101814270D0E06850F835A04FF0F8
:10495000000B6A461021504625F06CF810B14FF05C
:10496000010B98E06A461121504625F063F810B11A
:104970004FF0010B8FE06A461221504625F05AF89D
:1049800010B14FF0010B86E06A461321504625F026
:1049900051F810B14FF0010B7DE06A4615215046E9
:1049A00025F048F810B14FF0010B74E06A4614216D
:1049B000504625F03FF810B14FF0010B6BE06A460E
:1049C0000A21504625F036F810B14FF0010B62E095
:1049D0006A466A21504625F02DF810B14FF0010BC0
:1049E00059E06A466B21504625F024F810B14FF08B
:1049F000010B50E06A460121504625F01BF810B12A
:104A00004FF0010B47E06A460421504625F012F8AA
:104A100010B14FF0010B3EE06A460221504625F0EE
:104A200009F818B14FF0010B35E0B5E06A460321F3
:104A3000504624F0FFFF10B14FF0010B2BE06A4607
:104A40000521504624F0F6FF10B14FF0010B22E093
:104A50006A460621504624F0EDFF10B14FF0010BDD
:104A600019E06A463221504624F0E4FF10B14FF0BD
:104A7000010B10E06A466D21504624F0DBFF10B1B7
:104A80004FF0010B07E06A466C21504624F0D2FF3C
:104A900008B14FF0010BBBF1000F02D00320BDE8BD
:104AA000FE8F6A466821504624F0C4FF10B14FF0D3
:104AB000020970E06A466921504624F0BBFF10B13C
:104AC0004FF0020967E06A466D21504624F0B2FFBC
:104AD00010B14FF002095EE06A466C21504624F0A6
:104AE000A9FF10B14FF0020955E06A463721504640
:104AF00024F0A0FF10B14FF002094CE06A463821C3
:104B0000504624F097FF10B14FF0020943E06A4687
:104B10003521504624F08EFF10B14FF002093AE0E3
:104B20006A464021504624F085FF10B14FF002093B
:104B300031E06A464521504624F07CFF10B14FF029
:104B4000020928E06A464121504624F073FF10B163
:104B50004FF002091FE06A464221504624F06AFFE6
:104B600010B14FF0020916E06A464321504624F086
:104B700061FF10B14FF002090DE06A46492150462D
:104B800024F058FF10B14FF0020904E0B9F1000F12
:104B900001D14FF0010900BF00BF6D1C608CC0F354
:104BA000C500A8423FF6ADAE484678E70148006828
:104BB00070470000C000002070470146C1F3041296
:104BC000072A00DD0722D0B27047000001464FF6E9
:104BD000FF70814201D11F20704709B90020FBE717
:104BE000702902DA0948405CF6E7A1F1700081B251
:104BF0000748006838B107480068814203D204487A
:104C00000068405CE8E70020E6E70000283D040873
:104C10002C0200204002002010B518210348FFF7A5
:104C200076FC012026F0EEFE10BD0000744100204D
:104C30002DE9F04105460F4616460DB9BDE8F08155
:104C40002846FBF78FFC8046394628460A4A1268F8
:104C500090470746E8193146074A126890470646CA
:104C60003C4603E0A019285C2855641CA8EB06000C
:104C7000A042F7D200BFE1E7700200202DE9F04129
:104C800006460C4617461D4629463046084A126815
:104C900090472060206830B1296888190021044AB3
:104CA0001268904700E000203860BDE8F081000005
:104CB000680200202DE9F04F87B004460F46924667
:104CC0009846DDE910560DB1002028801CB900205F
:104CD00007B0BDE8F08F207808B90020F8E70FB9D9
:104CE0000020F5E74FF0000906F0020010B906F0C9
:104CF000040098B1002000E0401C215C0A2905D086
:104D0000215C0D2902D0215C0029F5D1215C01B183
:104D1000401C15B14FF0FF312980D9E706F00200A1
:104D200008B141F6FF7800200690059038E0002099
:104D30000490059808B9012000E0002006A904AA03
:104D4000CDE90062CDE9021005996018434652464C
:104D5000394627F0BFF883460498A8EB00000FFA05
:104D600080F8049848440FFA80F9BBF1000F00D195
:104D70001CE005985844059020780A2802D0207835
:104D80000D2800D112E00598205C0A2803D0059870
:104D9000205C0D2803D10598401C059006E000BF5B
:104DA0000598205C10B1B8F1000FC0DC00BF059879
:104DB00070B905A92046094A12689047834635B163
:104DC00000225946384619F098F80FFA80F900BFCA
:104DD0000DB1A5F8009005987AE700006802002060
:104DE0002DE9F04706468846174606B10FB9BDE8DB
:104DF000F0873046FBF7B6FB81463846FBF7B2FB3F
:104E0000044604B9F3E704EB090A414630460B4A6D
:104E1000126890478046554603E0281B305C705569
:104E20006D1E08EB0400A842F7D906EB08002246E5
:104E300039461DF0BBF800BFD9E700007002002022
:104E4000024600200FA31B788B4211D113781BB9A7
:104E50000123137001200BE01378012B02D10023F2
:104E6000137005E01378022B02D100231370012088
:104E70001378012B04D1202901D1022313700120C2
:104E8000704700002300000073B582B00646039807
:104E90000190324600210846019B27F03BFB054666
:104EA000002001900024681C1CF012FE044600BF84
:104EB0001CB900BF00BF00BFFEE700BF14B900204F
:104EC00004B070BD002060553246691C2046039B2B
:104ED00027F020FB2046F3E72DE9F04781460E46F8
:104EE00014461F46DDF820A035461BE0600800FB95
:104EF000075529464846D047B0F1000809DD04F0BF
:104F0000010080F00100C0EB5404E8190546064694
:104F100008E0B8F1000F02DA6408354602E02846DE
:104F2000BDE8F087002CE1D10020F9E72DE9FF4F23
:104F300085B08346DDE9158ADDE91349DDE917759A
:104F4000129E05F00200F8B94FB105F0010030B132
:104F5000B9F1000F02D105F00C0000B17F1E03E093
:104F600030222046641C3254544501D2202CF7D301
:104F700003E030222046641C325405F0010018B1D1
:104F8000BC4201D2202CF4D305F01000B0B305F4DC
:104F9000806050B94CB1544501D0BC4205D1641E6B
:104FA0001CB1B8F1100F00D1641EB8F1100F09D177
:104FB00005F0200030B9202C04D278222046641C51
:104FC000325415E0B8F1100F09D105F0200030B1CE
:104FD000202C04D258222046641C325408E0B8F138
:104FE000020F05D1202C03D262222046641C3254C9
:104FF000202C03D230222046641C3254202C16D29E
:10500000B9F1000F04D02D222046641C32540EE06A
:1050100005F0040020B12B222046641C325406E027
:1050200005F0080018B120222046641C3254CDE956
:105030000275CDE90064584606A90EC900F0A2F831
:1050400009B0BDE8F08F2DE9FF4F8FB08046DDE954
:105050001FABDDE91D96219D1C9C00270CB925F096
:10506000100505F4806000B1E4B100BFB4FBF6F1B7
:1050700006FB1141C8B20A2802DA00F1300107E04C
:1050800005F0200109B1412100E0612101440A3904
:10509000CBB239467F1C07AA5354B4FBF6F40CB1CB
:1050A000202FE3D307A8CDE904AB8DE88102039656
:1050B0000695404610A90EC9FFF738FF13B0BDE8AA
:1050C000F08F2DE9FF4F8FB0DDE9217BDDF8908077
:1050D000209EDDE91C454FF00009002184EA010013
:1050E0006940084301D128F0100808F4806028B115
:1050F000002184EA0100694008432DD000BF3246F8
:105100003B4620462946FBF7FBF802F0FF0ABAF1BE
:105110000A0F02DA0AF1300007E008F0200008B1B7
:10512000412000E0612050440A38C2B2484609F1EB
:10513000010907A90A5432463B4620462946FBF797
:10514000DFF804460D46002184EA01006940084367
:1051500002D0B9F1200FD2D32398CDE9036BCDE96A
:10516000050807A91E98CDE9001902900FA80FC8DD
:10517000FFF7DCFE13B0BDE8F08F9A4200D28854EE
:10518000704770472DE9FF5F05461446DDE90EA61E
:10519000DDE91087A34607F0020078B907F00100A7
:1051A00060B9B14607E02246641C2020039B0199A8
:1051B000A84709F10109C145F5D300BF08E022461F
:1051C000641C711E0E461AF80100039B0199A84742
:1051D000002EF4D107F0020050B105E02246641C15
:1051E0002020039B0199A847A4EB0B004045F5D371
:1051F000204604B0BDE8F09F2DE9FF4F8BB0074675
:1052000000250C9800B9FA4FEAE20E98007825289C
:105210000AD02A466D1C0E990878DDE90C13B847B0
:105220000E98401C0E90DBE20E98401C0E9000245D
:1052300000BF0E9800782B2819D004DC20281ED03F
:1052400023282CD123E02D2809D0302827D144F061
:1052500001040E98401C0E9001200A9022E044F0B8
:1052600002040E98401C0E9001200A901AE044F0AF
:1052700004040E98401C0E9001200A9012E044F0A5
:1052800008040E98401C0E9001200A900AE044F099
:1052900010040E98401C0E9001200A9002E000209D
:1052A0000A9000BF00BF0A980028C2D180460E991C
:1052B0000878FEF76AF920B10EA8FEF751F980468A
:1052C00012E00E9800782A280ED1189901C9189179
:1052D000002804DA44F00204C0F1000800E080462F
:1052E0000E99491C0E9100BF4FF000090E980078EE
:1052F0002E281FD144F480640E98401C0E900E9905
:105300000878FEF742F920B10EA8FEF729F9814688
:1053100010E00E9800782A280CD1189901C918912C
:10532000002801DD014600E0002189460E99491C54
:105330000E9100BF0E9800786C280AD004DC682813
:1053400016D06A2835D128E0742820D07A2830D1A8
:1053500029E044F480740E98401C0E900E9800785A
:105360006C2804D144F400740E98401C0E9021E087
:1053700044F080040E98401C0E900E980078682827
:1053800004D144F040040E98401C0E9012E044F406
:1053900080740E98401C0E900CE044F400740E983B
:1053A000401C0E9006E044F480740E98401C0E9051
:1053B00000E000BF00BF0E98007869281DD00EDC09
:1053C000622821D006DC25287ED050281AD0582803
:1053D0007BD115E0632879D06428F9D10CE07328DB
:1053E00075D004DC6F280ED07028F1D109E0752843
:1053F00004D07828ECD102E000BF00BF00BF00BF9E
:1054000000BF00BF00BF00BF0E980078782803D00F
:105410000E980078582801D1102623E00E980078C5
:10542000702803D00E98007850280CD1102644F034
:10543000100444F480740E984078562812D10E98C7
:10544000401C0E900EE00E9800786F2801D10826BF
:1054500008E00E980078622801D1022602E00A26B0
:1054600024F010040E980078582803D00E98007885
:10547000502801D144F020040E980078692805D006
:105480000E980078642801D024F00C0404F48060A5
:1054900008B124F001040E980078692803D00E9812
:1054A000007864287CD104F40070B8B31898C01D4B
:1054B00020F007001890D0E900AB189A0832189233
:1054C0000020CDE9069803E073E17CE1F2E01CE105
:1054D000CDE904600894BAEB00017BEB000001DA2F
:1054E000012000E00020002102900846B1EB0A01F3
:1054F00070EB0B0002DA5046594605E000200146E9
:10550000B0EB0A0061EB0B01CDE900012A463846F9
:10551000DDE90C13FFF7D5FD0546C7E0FFE704F40E
:105520008070D0B1189850F804AB18904FEADA7038
:10553000CDE9039802960594BAF1000F01DD5146BA
:1055400001E0CAF10001CDE900102A463846DDE944
:105550000C13FFF778FD0546A8E004F0400028B1E1
:10556000189810F8041B1890C8B20DE004F08000E1
:1055700028B1189830F8041B189008B204E0189865
:1055800000681899091D189182464FEADA70CDE932
:10559000039802960594BAF1000F02DD514602E02D
:1055A0000BE0CAF10001CDE900102A463846DDE9DA
:1055B0000C13FFF748FD054678E00E980078562852
:1055C00018D1189850F804AB1890DAF80400006865
:1055D000099009980090DAF800300D98421B0C9859
:1055E00041193846FFF708FE0544002009905DE0A8
:1055F0008351000804F40070D0B11898C01D20F049
:105600000700CDE90698089418900020CDE90460C1
:105610000290189903C9189A08321892CDE900012E
:105620002A463846DDE90C13FFF74BFD05463DE001
:1056300004F4807098B10022CDE903980296059495
:10564000189800681899091DCDE9000218912A469A
:105650003846DDE90C13FFF7F6FC054626E004F0BA
:10566000400028B1189810F8041B1890C8B20DE03B
:1056700004F0800028B1189830F8041B189088B204
:1056800004E0189800681899091D189182460020B6
:10569000CDE900A0CDE90398029605942A46384644
:1056A000DDE90C13FFF7CFFC054600BF0E98401C48
:1056B0000E9093E0012604F0020050B905E02A465E
:1056C0006D1C2020DDE90C13B8473046761C4045A0
:1056D000F5D3189911F8043BD8B22A466D1C1891DD
:1056E000DDE90C13B84704F0020050B105E02A468A
:1056F0006D1C2020DDE90C13B8473046761C404570
:10570000F5D30E98401C0E9068E0189850F804AB42
:1057100018905046B9F1000F01D0494601E04FF012
:10572000FF310A46014600E0491C0B781BB1131EED
:10573000A2F10102F8D10E1A04F4806028B14E459E
:1057400001D2304600E04846064604F0020050B957
:1057500005E02A466D1C2020DDE90C13B8473046D1
:10576000761C4045F5D306E01AF8010B2A466D1C5D
:10577000DDE90C13B8479AF8000040B104F48060EA
:105780000028F1D0B9F10000A9F10109ECD104F031
:10579000020050B105E02A466D1C2020DDE90C1303
:1057A000B8473046761C4045F5D30E98401C0E9005
:1057B00014E02A466D1C2520DDE90C13B8470E982D
:1057C000401C0E900AE02A466D1C0E990878DDE90F
:1057D0000C13B8470E98401C0E9000BF00BF00BFCE
:1057E0000E98007800287FF410AD0D98854201D204
:1057F000284601E00D98401E02460020DDE90C130A
:10580000B84728460FB0BDE8F08F2DE9F0410446B7
:105810000E46002774B13146204600F02DF80546AB
:10582000B5F5004F05D20C2D01D9284600E00C201B
:10583000074600BF3846BDE8F081024600BF481E5B
:10584000084018B100BF00BF00BFFEE700BF481E00
:105850001040101A704710B502464B1E13444C1EE0
:1058600023EA040000BF4B1E0B401BB100BF00BF6A
:1058700000BFFEE700BF10BD024600BF481E084043
:1058800018B100BF00BF00BFFEE700BF481E1044B4
:105890004B1E9843704700002DE9F04180460E46AC
:1058A000444601206086002500270DE056F82700B9
:1058B00025A1FAF7F1FE10B1681C85B202E0608EF6
:1058C000401C6086781C87B256F8270020B156F835
:1058D000270000780028E9D1208EA84201D1BDE838
:1058E000F081A06A20B1A06A1CF0D0F90020A0626B
:1058F000E06A20B1E06A1CF0C9F90020E062E8002B
:105900001CF0E6F8A06200BFA06A18B900BF00BF93
:1059100000BFFEE700BF68001CF0DAF8E06200BFDD
:10592000E06A18B900BF00BF00BFFEE700BFA06A71
:1059300008B1E06A00B900256900E06A1CF07CFB50
:10594000258600BFCBE700000A0000002DE9F84FD4
:1059500081460E46924699F8090000F00700022899
:1059600001D1304600E050468346564501DD3046C1
:1059700000E050460746032000EB470020F00300FC
:1059800000F110053948006839490968A0EB0108A1
:10599000002405EB080037490968884206D23348DD
:1059A0000468606820F0004060603AE031480068B8
:1059B000854221D813E04FF0FF3000900022694665
:1059C0002D480FF09FFC002269462C480FF09AFCEE
:1059D0002648006826490968A0EB010800BF08EBCB
:1059E0000500244909688842E5D8204804686068B1
:1059F00020F00040606014E028461CF069F804467E
:105A000000BF1CB900BF00BF00BFFEE700BF14B954
:105A10000020BDE8F88F606820F0004000F10040F1
:105A2000606032465946484602F06BFA2060606872
:105A300000F04040401C6060606820F08040606082
:105A4000A781A4F80EB06068C00F20B1204600F115
:105A50001001A16008E0054800681030A06003480C
:105A600000682844014908602046D2E7C8000020A9
:105A700028020020C4000020791401088553010881
:105A8000F0B585B006460D463446002004900390DC
:105A9000029094F83C0000F0030020B1012838D0B7
:105AA000022866D000BF94F83C0000F003005D4976
:105AB000097888421BD02620005D00EB001000EB27
:105AC0004000142190FBF1F0574908702720005D39
:105AD00000EB001000EB4000142190FBF1F0534963
